{
  "_format": "hh-sol-artifact-1",
  "contractName": "AuthorizationDatastore",
  "sourceName": "contracts/dependencies/authorization-platform/contracts/AuthorizationDatastore.sol",
  "abi": [
    {
      "inputs": [
        {
          "internalType": "address",
          "name": "authorizationProtocol",
          "type": "address"
        }
      ],
      "stateMutability": "nonpayable",
      "type": "constructor"
    },
    {
      "anonymous": false,
      "inputs": [
        {
          "indexed": true,
          "internalType": "address",
          "name": "_contract",
          "type": "address"
        },
        {
          "indexed": true,
          "internalType": "bytes32",
          "name": "rootRole",
          "type": "bytes32"
        },
        {
          "indexed": true,
          "internalType": "address",
          "name": "rootAccount",
          "type": "address"
        }
      ],
      "name": "ContractRegistered",
      "type": "event"
    },
    {
      "anonymous": false,
      "inputs": [
        {
          "indexed": true,
          "internalType": "address",
          "name": "contract_",
          "type": "address"
        },
        {
          "indexed": true,
          "internalType": "address",
          "name": "creator",
          "type": "address"
        },
        {
          "indexed": false,
          "internalType": "bytes32",
          "name": "role",
          "type": "bytes32"
        }
      ],
      "name": "CreatedRole",
      "type": "event"
    },
    {
      "anonymous": false,
      "inputs": [
        {
          "indexed": true,
          "internalType": "address",
          "name": "contract_",
          "type": "address"
        },
        {
          "indexed": false,
          "internalType": "address",
          "name": "submitter",
          "type": "address"
        },
        {
          "indexed": true,
          "internalType": "bytes32",
          "name": "role",
          "type": "bytes32"
        },
        {
          "indexed": true,
          "internalType": "bytes32",
          "name": "restrictedRole",
          "type": "bytes32"
        }
      ],
      "name": "RestrictedRoleAdded",
      "type": "event"
    },
    {
      "anonymous": false,
      "inputs": [
        {
          "indexed": true,
          "internalType": "address",
          "name": "contract_",
          "type": "address"
        },
        {
          "indexed": false,
          "internalType": "address",
          "name": "submitter",
          "type": "address"
        },
        {
          "indexed": true,
          "internalType": "bytes32",
          "name": "role",
          "type": "bytes32"
        },
        {
          "indexed": true,
          "internalType": "bytes32",
          "name": "restrictedRole",
          "type": "bytes32"
        }
      ],
      "name": "RestrictedRoleRemoved",
      "type": "event"
    },
    {
      "anonymous": false,
      "inputs": [
        {
          "indexed": true,
          "internalType": "address",
          "name": "contract_",
          "type": "address"
        },
        {
          "indexed": true,
          "internalType": "bytes32",
          "name": "role",
          "type": "bytes32"
        },
        {
          "indexed": false,
          "internalType": "address",
          "name": "account",
          "type": "address"
        },
        {
          "indexed": true,
          "internalType": "address",
          "name": "sender",
          "type": "address"
        }
      ],
      "name": "RoleApprovalRevoked",
      "type": "event"
    },
    {
      "anonymous": false,
      "inputs": [
        {
          "indexed": true,
          "internalType": "address",
          "name": "contract_",
          "type": "address"
        },
        {
          "indexed": true,
          "internalType": "bytes32",
          "name": "role",
          "type": "bytes32"
        },
        {
          "indexed": false,
          "internalType": "address",
          "name": "account",
          "type": "address"
        },
        {
          "indexed": true,
          "internalType": "address",
          "name": "sender",
          "type": "address"
        }
      ],
      "name": "RoleApproved",
      "type": "event"
    },
    {
      "anonymous": false,
      "inputs": [
        {
          "indexed": true,
          "internalType": "address",
          "name": "contract_",
          "type": "address"
        },
        {
          "indexed": true,
          "internalType": "bytes32",
          "name": "role",
          "type": "bytes32"
        },
        {
          "indexed": false,
          "internalType": "address",
          "name": "account",
          "type": "address"
        },
        {
          "indexed": true,
          "internalType": "address",
          "name": "sender",
          "type": "address"
        }
      ],
      "name": "RoleAssigned",
      "type": "event"
    },
    {
      "anonymous": false,
      "inputs": [
        {
          "indexed": true,
          "internalType": "address",
          "name": "contract_",
          "type": "address"
        },
        {
          "indexed": true,
          "internalType": "bytes32",
          "name": "role",
          "type": "bytes32"
        },
        {
          "indexed": true,
          "internalType": "address",
          "name": "account",
          "type": "address"
        },
        {
          "indexed": false,
          "internalType": "address",
          "name": "sender",
          "type": "address"
        }
      ],
      "name": "RoleRemoved",
      "type": "event"
    },
    {
      "anonymous": false,
      "inputs": [
        {
          "indexed": true,
          "internalType": "address",
          "name": "contract_",
          "type": "address"
        },
        {
          "indexed": true,
          "internalType": "bytes32",
          "name": "role",
          "type": "bytes32"
        },
        {
          "indexed": true,
          "internalType": "address",
          "name": "account",
          "type": "address"
        }
      ],
      "name": "RoleRenounced",
      "type": "event"
    },
    {
      "anonymous": false,
      "inputs": [
        {
          "indexed": true,
          "internalType": "address",
          "name": "contract_",
          "type": "address"
        },
        {
          "indexed": false,
          "internalType": "address",
          "name": "submitter",
          "type": "address"
        },
        {
          "indexed": true,
          "internalType": "bytes32",
          "name": "role",
          "type": "bytes32"
        },
        {
          "indexed": true,
          "internalType": "bytes32",
          "name": "adminRole",
          "type": "bytes32"
        }
      ],
      "name": "SetAdminRole",
      "type": "event"
    },
    {
      "anonymous": false,
      "inputs": [
        {
          "indexed": true,
          "internalType": "address",
          "name": "contract_",
          "type": "address"
        },
        {
          "indexed": false,
          "internalType": "address",
          "name": "submitter",
          "type": "address"
        },
        {
          "indexed": true,
          "internalType": "bytes32",
          "name": "role",
          "type": "bytes32"
        },
        {
          "indexed": true,
          "internalType": "bytes32",
          "name": "approverRole",
          "type": "bytes32"
        }
      ],
      "name": "SetApproverRole",
      "type": "event"
    },
    {
      "inputs": [
        {
          "internalType": "address",
          "name": "contract_",
          "type": "address"
        },
        {
          "internalType": "address",
          "name": "submitter",
          "type": "address"
        },
        {
          "internalType": "bytes32",
          "name": "role",
          "type": "bytes32"
        },
        {
          "internalType": "bytes32",
          "name": "restrictedRole",
          "type": "bytes32"
        }
      ],
      "name": "addRestrictedRole",
      "outputs": [],
      "stateMutability": "nonpayable",
      "type": "function"
    },
    {
      "inputs": [
        {
          "internalType": "address",
          "name": "contract_",
          "type": "address"
        },
        {
          "internalType": "bytes32",
          "name": "role",
          "type": "bytes32"
        },
        {
          "internalType": "address",
          "name": "account",
          "type": "address"
        },
        {
          "internalType": "address",
          "name": "sender",
          "type": "address"
        }
      ],
      "name": "approveForRole",
      "outputs": [],
      "stateMutability": "nonpayable",
      "type": "function"
    },
    {
      "inputs": [
        {
          "internalType": "address",
          "name": "contract_",
          "type": "address"
        },
        {
          "internalType": "bytes32",
          "name": "role",
          "type": "bytes32"
        },
        {
          "internalType": "address",
          "name": "account",
          "type": "address"
        },
        {
          "internalType": "address",
          "name": "sender",
          "type": "address"
        }
      ],
      "name": "assignRole",
      "outputs": [],
      "stateMutability": "nonpayable",
      "type": "function"
    },
    {
      "inputs": [
        {
          "internalType": "address",
          "name": "contract_",
          "type": "address"
        },
        {
          "internalType": "address",
          "name": "submitter",
          "type": "address"
        },
        {
          "internalType": "bytes32",
          "name": "role",
          "type": "bytes32"
        },
        {
          "internalType": "bytes32",
          "name": "adminRole",
          "type": "bytes32"
        },
        {
          "internalType": "bytes32",
          "name": "approverRole",
          "type": "bytes32"
        }
      ],
      "name": "createRole",
      "outputs": [],
      "stateMutability": "nonpayable",
      "type": "function"
    },
    {
      "inputs": [
        {
          "internalType": "address",
          "name": "contract_",
          "type": "address"
        },
        {
          "internalType": "bytes32",
          "name": "role",
          "type": "bytes32"
        }
      ],
      "name": "getAdminRole",
      "outputs": [
        {
          "internalType": "bytes32",
          "name": "",
          "type": "bytes32"
        }
      ],
      "stateMutability": "view",
      "type": "function"
    },
    {
      "inputs": [
        {
          "internalType": "address",
          "name": "contract_",
          "type": "address"
        },
        {
          "internalType": "bytes32",
          "name": "role",
          "type": "bytes32"
        }
      ],
      "name": "getApproverRole",
      "outputs": [
        {
          "internalType": "bytes32",
          "name": "",
          "type": "bytes32"
        }
      ],
      "stateMutability": "view",
      "type": "function"
    },
    {
      "inputs": [
        {
          "internalType": "address",
          "name": "contract_",
          "type": "address"
        },
        {
          "internalType": "bytes32",
          "name": "role",
          "type": "bytes32"
        },
        {
          "internalType": "uint256",
          "name": "index",
          "type": "uint256"
        }
      ],
      "name": "getRoleMember",
      "outputs": [
        {
          "internalType": "address",
          "name": "",
          "type": "address"
        }
      ],
      "stateMutability": "view",
      "type": "function"
    },
    {
      "inputs": [
        {
          "internalType": "address",
          "name": "contract_",
          "type": "address"
        },
        {
          "internalType": "bytes32",
          "name": "role",
          "type": "bytes32"
        }
      ],
      "name": "getRoleMemberCount",
      "outputs": [
        {
          "internalType": "uint256",
          "name": "",
          "type": "uint256"
        }
      ],
      "stateMutability": "view",
      "type": "function"
    },
    {
      "inputs": [
        {
          "internalType": "address",
          "name": "contract_",
          "type": "address"
        },
        {
          "internalType": "bytes32",
          "name": "role",
          "type": "bytes32"
        },
        {
          "internalType": "address",
          "name": "account",
          "type": "address"
        }
      ],
      "name": "hasRestrictedRole",
      "outputs": [
        {
          "internalType": "bool",
          "name": "",
          "type": "bool"
        }
      ],
      "stateMutability": "view",
      "type": "function"
    },
    {
      "inputs": [
        {
          "internalType": "address",
          "name": "contract_",
          "type": "address"
        },
        {
          "internalType": "bytes32",
          "name": "role",
          "type": "bytes32"
        },
        {
          "internalType": "address",
          "name": "account",
          "type": "address"
        }
      ],
      "name": "hasRole",
      "outputs": [
        {
          "internalType": "bool",
          "name": "",
          "type": "bool"
        }
      ],
      "stateMutability": "view",
      "type": "function"
    },
    {
      "inputs": [
        {
          "internalType": "address",
          "name": "contract_",
          "type": "address"
        },
        {
          "internalType": "bytes32",
          "name": "role",
          "type": "bytes32"
        },
        {
          "internalType": "address",
          "name": "account",
          "type": "address"
        }
      ],
      "name": "isApprovedForRole",
      "outputs": [
        {
          "internalType": "bool",
          "name": "",
          "type": "bool"
        }
      ],
      "stateMutability": "view",
      "type": "function"
    },
    {
      "inputs": [
        {
          "internalType": "address",
          "name": "contract_",
          "type": "address"
        }
      ],
      "name": "isContractRegistered",
      "outputs": [
        {
          "internalType": "bool",
          "name": "",
          "type": "bool"
        }
      ],
      "stateMutability": "view",
      "type": "function"
    },
    {
      "inputs": [
        {
          "internalType": "address",
          "name": "contract_",
          "type": "address"
        },
        {
          "internalType": "bytes32",
          "name": "role",
          "type": "bytes32"
        }
      ],
      "name": "isRoleCreated",
      "outputs": [
        {
          "internalType": "bool",
          "name": "",
          "type": "bool"
        }
      ],
      "stateMutability": "view",
      "type": "function"
    },
    {
      "inputs": [
        {
          "internalType": "address",
          "name": "contract_",
          "type": "address"
        },
        {
          "internalType": "bytes32",
          "name": "role",
          "type": "bytes32"
        },
        {
          "internalType": "bytes32",
          "name": "restrictedRole",
          "type": "bytes32"
        }
      ],
      "name": "isRoleRestricted",
      "outputs": [
        {
          "internalType": "bool",
          "name": "",
          "type": "bool"
        }
      ],
      "stateMutability": "view",
      "type": "function"
    },
    {
      "inputs": [
        {
          "internalType": "address",
          "name": "contract_",
          "type": "address"
        },
        {
          "internalType": "bytes32",
          "name": "rootRole",
          "type": "bytes32"
        },
        {
          "internalType": "address",
          "name": "rootAccount",
          "type": "address"
        }
      ],
      "name": "registerContract",
      "outputs": [],
      "stateMutability": "nonpayable",
      "type": "function"
    },
    {
      "inputs": [
        {
          "internalType": "address",
          "name": "contract_",
          "type": "address"
        },
        {
          "internalType": "address",
          "name": "submitter",
          "type": "address"
        },
        {
          "internalType": "bytes32",
          "name": "role",
          "type": "bytes32"
        },
        {
          "internalType": "bytes32",
          "name": "restrictedRole",
          "type": "bytes32"
        }
      ],
      "name": "removeRestrictedRole",
      "outputs": [],
      "stateMutability": "nonpayable",
      "type": "function"
    },
    {
      "inputs": [
        {
          "internalType": "address",
          "name": "contract_",
          "type": "address"
        },
        {
          "internalType": "bytes32",
          "name": "role",
          "type": "bytes32"
        },
        {
          "internalType": "address",
          "name": "account",
          "type": "address"
        },
        {
          "internalType": "address",
          "name": "sender",
          "type": "address"
        }
      ],
      "name": "removeRole",
      "outputs": [],
      "stateMutability": "nonpayable",
      "type": "function"
    },
    {
      "inputs": [
        {
          "internalType": "address",
          "name": "contract_",
          "type": "address"
        },
        {
          "internalType": "bytes32",
          "name": "role",
          "type": "bytes32"
        }
      ],
      "name": "renounceRole",
      "outputs": [],
      "stateMutability": "nonpayable",
      "type": "function"
    },
    {
      "inputs": [
        {
          "internalType": "address",
          "name": "contract_",
          "type": "address"
        },
        {
          "internalType": "bytes32",
          "name": "role",
          "type": "bytes32"
        },
        {
          "internalType": "address",
          "name": "account",
          "type": "address"
        },
        {
          "internalType": "address",
          "name": "sender",
          "type": "address"
        }
      ],
      "name": "revokeApproval",
      "outputs": [],
      "stateMutability": "nonpayable",
      "type": "function"
    },
    {
      "inputs": [
        {
          "internalType": "address",
          "name": "contract_",
          "type": "address"
        },
        {
          "internalType": "address",
          "name": "submitter",
          "type": "address"
        },
        {
          "internalType": "bytes32",
          "name": "role",
          "type": "bytes32"
        },
        {
          "internalType": "bytes32",
          "name": "adminRole",
          "type": "bytes32"
        }
      ],
      "name": "setAdminRole",
      "outputs": [],
      "stateMutability": "nonpayable",
      "type": "function"
    },
    {
      "inputs": [
        {
          "internalType": "address",
          "name": "contract_",
          "type": "address"
        },
        {
          "internalType": "address",
          "name": "submitter",
          "type": "address"
        },
        {
          "internalType": "bytes32",
          "name": "role",
          "type": "bytes32"
        },
        {
          "internalType": "bytes32",
          "name": "approverRole",
          "type": "bytes32"
        }
      ],
      "name": "setApproverRole",
      "outputs": [],
      "stateMutability": "nonpayable",
      "type": "function"
    }
  ],
  "bytecode": "0x608060405234801561001057600080fd5b50604051612cbe380380612cbe8339818101604052602081101561003357600080fd5b5051600080546001600160a01b039092166001600160a01b0319909216919091179055612c59806100656000396000f3fe608060405234801561001057600080fd5b50600436106101375760003560e01c8063b142946c116100b8578063e1d4f9e61161007c578063e1d4f9e6146104c4578063f3c3437d146104fa578063f3dac56514610526578063f58404d314610552578063f9f6b49b1461057e578063fb19cfbd146105a457610137565b8063b142946c1461039e578063baf71a3c146103d4578063daa5e66114610410578063daddaa1b1461044c578063dc4ad03a1461048857610137565b80638cc6b01f116100ff5780638cc6b01f14610286578063a54d64e0146102c2578063a79a4c64146102f8578063aa81373c14610336578063adb447741461037257610137565b80632d3e579a1461013c5780634386b7ec146101865780634995b094146101c457806367725528146102065780638673e5db14610238575b600080fd5b6101726004803603606081101561015257600080fd5b506001600160a01b038135811691602081013591604090910135166105e0565b604080519115158252519081900360200190f35b6101c26004803603608081101561019c57600080fd5b506001600160a01b038135811691602081013591604082013581169160600135166106d4565b005b6101c2600480360360a08110156101da57600080fd5b506001600160a01b03813581169160208101359091169060408101359060608101359060800135610879565b6101726004803603606081101561021c57600080fd5b506001600160a01b038135169060208101359060400135610ad1565b61026a6004803603606081101561024e57600080fd5b506001600160a01b038135169060208101359060400135610c3e565b604080516001600160a01b039092168252519081900360200190f35b6101c26004803603608081101561029c57600080fd5b506001600160a01b03813581169160208101359091169060408101359060600135610d4a565b610172600480360360608110156102d857600080fd5b506001600160a01b03813581169160208101359160409091013516610f42565b6103246004803603604081101561030e57600080fd5b506001600160a01b038135169060200135611029565b60408051918252519081900360200190f35b6101c26004803603608081101561034c57600080fd5b506001600160a01b03813581169160208101359091169060408101359060600135611135565b6103246004803603604081101561038857600080fd5b506001600160a01b0381351690602001356114ad565b6101c2600480360360608110156103b457600080fd5b506001600160a01b038135811691602081013591604090910135166115c2565b6101c2600480360360808110156103ea57600080fd5b506001600160a01b03813581169160208101359091169060408101359060600135611759565b6101c26004803603608081101561042657600080fd5b506001600160a01b03813581169160208101359091169060408101359060600135611954565b6101c26004803603608081101561046257600080fd5b506001600160a01b03813581169160208101359160408201358116916060013516611b66565b6101c26004803603608081101561049e57600080fd5b506001600160a01b03813581169160208101359160408201358116916060013516611d06565b610172600480360360608110156104da57600080fd5b506001600160a01b03813581169160208101359160409091013516611f63565b6101c26004803603604081101561051057600080fd5b506001600160a01b03813516906020013561204a565b6103246004803603604081101561053c57600080fd5b506001600160a01b03813516906020013561220a565b6101726004803603604081101561056857600080fd5b506001600160a01b038135169060200135612319565b6101726004803603602081101561059457600080fd5b50356001600160a01b03166123bb565b6101c2600480360360808110156105ba57600080fd5b506001600160a01b038135811691602081013591604082013581169160600135166123f1565b600080546001600160a01b031633146105f857600080fd5b6001600160a01b0384166000908152600160205260409020548490610652576040805162461bcd60e51b815260206004820152601a6024820152600080516020612b91833981519152604482015290519081900360640190fd5b6001600160a01b0385166000908152600160209081526040808320878452600201909152902054859085906106bc576040805162461bcd60e51b81526020600482015260136024820152600080516020612b71833981519152604482015290519081900360640190fd5b6106c7878787612605565b93505b5050509392505050565b6000546001600160a01b031633146106eb57600080fd5b6001600160a01b0384166000908152600160205260409020548490610745576040805162461bcd60e51b815260206004820152601a6024820152600080516020612b91833981519152604482015290519081900360640190fd5b6001600160a01b0385166000908152600160209081526040808320878452600201909152902054859085906107af576040805162461bcd60e51b81526020600482015260136024820152600080516020612b71833981519152604482015290519081900360640190fd5b6107ba87878661263f565b6107f55760405162461bcd60e51b8152600401808060200182810382526029815260200180612a856029913960400191505060405180910390fd5b6001600160a01b0380881660008181526001602081815260408084208c855260020182528084208b87168086526006909101835293819020805460ff191690931790925581519283529051938816938a93927fb3f9717b08ebd38f94c97de1c3d5316b980b6a9e134342f59825a681883f71a492908290030190a450505050505050565b6000546001600160a01b0316331461089057600080fd5b6001600160a01b03851660009081526001602052604090205485906108ea576040805162461bcd60e51b815260206004820152601a6024820152600080516020612b91833981519152604482015290519081900360640190fd5b6001600160a01b03861660009081526001602090815260408083208054845260020190915290208690869061091f9082612673565b61095a5760405162461bcd60e51b8152600401808060200182810382526026815260200180612b256026913960400191505060405180910390fd5b6001600160a01b0388166000908152600160209081526040808320898452600201909152902054156109d3576040805162461bcd60e51b815260206004820152601d60248201527f526f6c65207369676e617475726520616c726561647920657869737473000000604482015290519081900360640190fd5b84610a0f5760405162461bcd60e51b8152600401808060200182810382526026815260200180612b4b6026913960400191505060405180910390fd5b83610a4b5760405162461bcd60e51b8152600401808060200182810382526026815260200180612b4b6026913960400191505060405180910390fd5b6001600160a01b03881660009081526001602090815260408083208984526002019091529020610a7c90868661268b565b866001600160a01b0316886001600160a01b03167f1b5fcacc406f1cce66ed6342c21a2dce262adbc3571f5db938cdcf7341d40fe7886040518082815260200191505060405180910390a35050505050505050565b600080546001600160a01b03163314610ae957600080fd5b6001600160a01b0384166000908152600160205260409020548490610b43576040805162461bcd60e51b815260206004820152601a6024820152600080516020612b91833981519152604482015290519081900360640190fd5b6001600160a01b038516600090815260016020908152604080832087845260020190915290205485908590610bad576040805162461bcd60e51b81526020600482015260136024820152600080516020612b71833981519152604482015290519081900360640190fd5b60005b6001600160a01b03881660009081526001602090815260408083208a84526002019091529020610bdf90612696565b811015610c30576001600160a01b03881660009081526001602090815260408083208a845260020190915290208690610c1890836126a4565b1415610c285760019450506106ca565b600101610bb0565b506000979650505050505050565b600080546001600160a01b03163314610c5657600080fd5b6001600160a01b0384166000908152600160205260409020548490610cb0576040805162461bcd60e51b815260206004820152601a6024820152600080516020612b91833981519152604482015290519081900360640190fd5b6001600160a01b038516600090815260016020908152604080832087845260020190915290205485908590610d1a576040805162461bcd60e51b81526020600482015260136024820152600080516020612b71833981519152604482015290519081900360640190fd5b6001600160a01b038716600090815260016020908152604080832089845260020190915290206106c790866126b3565b6000546001600160a01b03163314610d6157600080fd5b6001600160a01b0384166000908152600160205260409020548490610dbb576040805162461bcd60e51b815260206004820152601a6024820152600080516020612b91833981519152604482015290519081900360640190fd5b6001600160a01b038516600090815260016020908152604080832080548452600201909152902085908590610df09082612673565b610e2b5760405162461bcd60e51b8152600401808060200182810382526026815260200180612b256026913960400191505060405180910390fd5b6001600160a01b038716600090815260016020908152604080832088845260020190915290205487908690610e95576040805162461bcd60e51b81526020600482015260136024820152600080516020612b71833981519152604482015290519081900360640190fd5b888680610ed35760405162461bcd60e51b8152600401808060200182810382526026815260200180612b4b6026913960400191505060405180910390fd5b6001600160a01b038b811660008181526001602090815260408083208e84526002018252918290208c90558151938e16845290518b938d93927f1db1dce10a3f840eba2c8b85c5cf7822d5960e8e093e3463f76b14676090f2f592918290030190a45050505050505050505050565b600080546001600160a01b03163314610f5a57600080fd5b6001600160a01b0384166000908152600160205260409020548490610fb4576040805162461bcd60e51b815260206004820152601a6024820152600080516020612b91833981519152604482015290519081900360640190fd5b6001600160a01b03851660009081526001602090815260408083208784526002019091529020548590859061101e576040805162461bcd60e51b81526020600482015260136024820152600080516020612b71833981519152604482015290519081900360640190fd5b6106c78787876126c2565b600080546001600160a01b0316331461104157600080fd5b6001600160a01b038316600090815260016020526040902054839061109b576040805162461bcd60e51b815260206004820152601a6024820152600080516020612b91833981519152604482015290519081900360640190fd5b6001600160a01b038416600090815260016020908152604080832086845260020190915290205484908490611105576040805162461bcd60e51b81526020600482015260136024820152600080516020612b71833981519152604482015290519081900360640190fd5b505050506001600160a01b0391909116600090815260016020908152604080832093835260029093019052205490565b6000546001600160a01b0316331461114c57600080fd5b6001600160a01b03841660009081526001602052604090205484906111a6576040805162461bcd60e51b815260206004820152601a6024820152600080516020612b91833981519152604482015290519081900360640190fd5b6001600160a01b0385166000908152600160209081526040808320805484526002019091529020859085906111db9082612673565b6112165760405162461bcd60e51b8152600401808060200182810382526026815260200180612b256026913960400191505060405180910390fd5b6001600160a01b038716600090815260016020908152604080832088845260020190915290205487908690611280576040805162461bcd60e51b81526020600482015260136024820152600080516020612b71833981519152604482015290519081900360640190fd5b866112bc5760405162461bcd60e51b8152600401808060200182810382526026815260200180612b4b6026913960400191505060405180910390fd5b60005b6001600160a01b038a1660009081526001602090815260408083208b845260020190915290206112ee90612701565b811015611425576001600160a01b038a1660009081526001602090815260408083208b8452600201909152812061132590836126b3565b6001600160a01b03808d16600090815260016020818152604080842094861684529390910181528282208d83529052205490915060ff161561141c57806040516020018080612aae60559139605501826001600160a01b031660601b815260140191505060405160208183030381529060405260405162461bcd60e51b81526004018080602001828103825283818151815260200191508051906020019080838360005b838110156113e15781810151838201526020016113c9565b50505050905090810190601f16801561140e5780820380516001836020036101000a031916815260200191505b509250505060405180910390fd5b506001016112bf565b506001600160a01b03891660009081526001602090815260408083208a84526002019091529020611456908761270f565b85878a6001600160a01b03167f6c5303fc1e34848bd389867f7d5d8b7de70926cb94c426a9ebcc9f04128e6af08b60405180826001600160a01b0316815260200191505060405180910390a4505050505050505050565b600080546001600160a01b031633146114c557600080fd5b6001600160a01b038316600090815260016020526040902054839061151f576040805162461bcd60e51b815260206004820152601a6024820152600080516020612b91833981519152604482015290519081900360640190fd5b6001600160a01b038416600090815260016020908152604080832086845260020190915290205484908490611589576040805162461bcd60e51b81526020600482015260136024820152600080516020612b71833981519152604482015290519081900360640190fd5b6001600160a01b038616600090815260016020908152604080832088845260020190915290206115b890612701565b9695505050505050565b6000546001600160a01b031633146115d957600080fd5b823b806116175760405162461bcd60e51b8152600401808060200182810382526031815260200180612bd26031913960400191505060405180910390fd5b6001600160a01b03841660009081526001602052604090205415611682576040805162461bcd60e51b815260206004820152601e60248201527f436f6e747261637420616c726561647920696e20646174612073746f72650000604482015290519081900360640190fd5b826116be5760405162461bcd60e51b8152600401808060200182810382526026815260200180612b4b6026913960400191505060405180910390fd5b6001600160a01b038481166000908152600160208181526040808420888155948716845284830182528084208885528252808420805460ff1916909317909255600290930190925220611712908484612721565b816001600160a01b031683856001600160a01b03167fcdce553bcb07e0f6e0c26b86952244f3844a18487432c4794762168bc3812df460405160405180910390a450505050565b6000546001600160a01b0316331461177057600080fd5b6001600160a01b03841660009081526001602052604090205484906117ca576040805162461bcd60e51b815260206004820152601a6024820152600080516020612b91833981519152604482015290519081900360640190fd5b6001600160a01b0385166000908152600160209081526040808320805484526002019091529020859085906117ff9082612673565b61183a5760405162461bcd60e51b8152600401808060200182810382526026815260200180612b256026913960400191505060405180910390fd5b6001600160a01b0387166000908152600160209081526040808320888452600201909152902054879086906118a4576040805162461bcd60e51b81526020600482015260136024820152600080516020612b71833981519152604482015290519081900360640190fd5b8886806118e25760405162461bcd60e51b8152600401808060200182810382526026815260200180612b4b6026913960400191505060405180910390fd5b6001600160a01b038b811660008181526001602081815260408084208f85526002018252928390209091018c90558151938e16845290518b938d93927fd1f55b8de5f9bf84e9073a3b01c0e3ace48a36d86ea983ec84af058480a3ae1b92918290030190a45050505050505050505050565b6000546001600160a01b0316331461196b57600080fd5b6001600160a01b03841660009081526001602052604090205484906119c5576040805162461bcd60e51b815260206004820152601a6024820152600080516020612b91833981519152604482015290519081900360640190fd5b6001600160a01b0385166000908152600160209081526040808320805484526002019091529020859085906119fa9082612673565b611a355760405162461bcd60e51b8152600401808060200182810382526026815260200180612b256026913960400191505060405180910390fd5b6001600160a01b038716600090815260016020908152604080832088845260020190915290205487908690611a9f576040805162461bcd60e51b81526020600482015260136024820152600080516020612b71833981519152604482015290519081900360640190fd5b888680611add5760405162461bcd60e51b8152600401808060200182810382526026815260200180612b4b6026913960400191505060405180910390fd5b6001600160a01b038b1660009081526001602090815260408083208c84526002019091529020611b0d908961275a565b87898c6001600160a01b03167fb7b79924508bbc981dd7a07be731735545aadabe2b1662b012aeaeda76fb726f8d60405180826001600160a01b0316815260200191505060405180910390a45050505050505050505050565b6000546001600160a01b03163314611b7d57600080fd5b6001600160a01b0384166000908152600160205260409020548490611bd7576040805162461bcd60e51b815260206004820152601a6024820152600080516020612b91833981519152604482015290519081900360640190fd5b6001600160a01b038516600090815260016020908152604080832087845260020190915290205485908590611c41576040805162461bcd60e51b81526020600482015260136024820152600080516020612b71833981519152604482015290519081900360640190fd5b611c4c87878661263f565b611c875760405162461bcd60e51b8152600401808060200182810382526029815260200180612a856029913960400191505060405180910390fd5b6001600160a01b0380881660008181526001602090815260408083208b845260020182528083208a86168085526006909101835292819020805460ff19169055805192835251938816938a93927fd773a3c15d1c0de1faca631be74826fde8d4b8e10e2855008bf44b43c758fa6c92908290030190a450505050505050565b6000546001600160a01b03163314611d1d57600080fd5b6001600160a01b0384166000908152600160205260409020548490611d77576040805162461bcd60e51b815260206004820152601a6024820152600080516020612b91833981519152604482015290519081900360640190fd5b6001600160a01b038516600090815260016020908152604080832087845260020190915290205485908590611de1576040805162461bcd60e51b81526020600482015260136024820152600080516020612b71833981519152604482015290519081900360640190fd5b611dec878786612767565b611e275760405162461bcd60e51b8152600401808060200182810382526026815260200180612b256026913960400191505060405180910390fd5b611e3287878761279a565b15611e6e5760405162461bcd60e51b8152600401808060200182810382526022815260200180612b036022913960400191505060405180910390fd5b611e798787876126c2565b611eb45760405162461bcd60e51b8152600401808060200182810382526021815260200180612c036021913960400191505060405180910390fd5b6001600160a01b03871660009081526001602090815260408083208984526002019091529020611ee4908661284a565b6001600160a01b0380881660008181526001602081815260408084208b871680865290840183528185208d8652835293819020805460ff191690931790925581519283529051938816938a93927ff25fac91501c696131165675fb194aae7086e1ac17b766ed4fe6105cd03658a892908290030190a450505050505050565b600080546001600160a01b03163314611f7b57600080fd5b6001600160a01b0384166000908152600160205260409020548490611fd5576040805162461bcd60e51b815260206004820152601a6024820152600080516020612b91833981519152604482015290519081900360640190fd5b6001600160a01b03851660009081526001602090815260408083208784526002019091529020548590859061203f576040805162461bcd60e51b81526020600482015260136024820152600080516020612b71833981519152604482015290519081900360640190fd5b6106c787878761279a565b6000546001600160a01b0316331461206157600080fd5b6001600160a01b03821660009081526001602052604090205482906120bb576040805162461bcd60e51b815260206004820152601a6024820152600080516020612b91833981519152604482015290519081900360640190fd5b6001600160a01b038316600090815260016020908152604080832085845260020190915290205483908390612125576040805162461bcd60e51b81526020600482015260136024820152600080516020612b71833981519152604482015290519081900360640190fd5b612130858533612605565b61216b5760405162461bcd60e51b8152600401808060200182810382526021815260200180612bb16021913960400191505060405180910390fd5b6001600160a01b0385166000908152600160209081526040808320878452600201909152902061219b9033612857565b6001600160a01b03851660008181526001602081815260408084203380865290840183528185208a8652909252808420805460ff191690931790925590519092879290917f7a5e883a25a17d5a3488f7992d663769408ffd53aaafa9b7bf4db500703885549190a45050505050565b600080546001600160a01b0316331461222257600080fd5b6001600160a01b038316600090815260016020526040902054839061227c576040805162461bcd60e51b815260206004820152601a6024820152600080516020612b91833981519152604482015290519081900360640190fd5b6001600160a01b0384166000908152600160209081526040808320868452600201909152902054849084906122e6576040805162461bcd60e51b81526020600482015260136024820152600080516020612b71833981519152604482015290519081900360640190fd5b505050506001600160a01b0391909116600090815260016020818152604080842094845260029094019052919020015490565b600080546001600160a01b0316331461233157600080fd5b6001600160a01b038316600090815260016020526040902054839061238b576040805162461bcd60e51b815260206004820152601a6024820152600080516020612b91833981519152604482015290519081900360640190fd5b50506001600160a01b03919091166000908152600160209081526040808320938352600290930190522054151590565b600080546001600160a01b031633146123d357600080fd5b506001600160a01b0316600090815260016020526040902054151590565b6000546001600160a01b0316331461240857600080fd5b6001600160a01b0384166000908152600160205260409020548490612462576040805162461bcd60e51b815260206004820152601a6024820152600080516020612b91833981519152604482015290519081900360640190fd5b6001600160a01b0385166000908152600160209081526040808320878452600201909152902054859085906124cc576040805162461bcd60e51b81526020600482015260136024820152600080516020612b71833981519152604482015290519081900360640190fd5b6124d7878786612767565b612515576040805162461bcd60e51b815260206004820152600a60248201526941646d696e206f6e6c7960b01b604482015290519081900360640190fd5b612520878787612605565b61255b5760405162461bcd60e51b8152600401808060200182810382526021815260200180612bb16021913960400191505060405180910390fd5b6001600160a01b0387166000908152600160209081526040808320898452600201909152902061258b9086612857565b6001600160a01b0380881660008181526001602081815260408084208b8716808652930182528084208c8552825292839020805460ff1916905582519489168552915190938a93927fac1dc4312f83ef187e4ded15008f957bdf56179da9606598bf041a4d8c0cddd992918290030190a450505050505050565b6001600160a01b038316600090815260016020908152604080832085845260020190915281206126359083612673565b90505b9392505050565b6001600160a01b03831660009081526001602081815260408084208685526002019091528220015461263590859084612605565b60006126826002840183612864565b90505b92915050565b908255600190910155565b600061268582600401612879565b60006126826004840183612884565b60006126826002840183612884565b6001600160a01b0380841660009081526001602090815260408083208684526002018252808320938516835260069093019052205460ff169392505050565b600061268582600201612879565b61271c6004830182612890565b505050565b818355612731600284018261289c565b506001600160a01b0316600090815260069092016020525060409020805460ff19166001179055565b61271c60048301826128b1565b6001600160a01b038316600090815260016020908152604080832085845260020190915281205461263590859084612605565b6000805b6001600160a01b038516600090815260016020908152604080832087845260020190915290206127cd90612696565b81101561283f576001600160a01b03851660009081526001602090815260408083208784526002019182905282206128289286929161280c90866126a4565b815260200190815260200160002061267390919063ffffffff16565b15612837576001915050612638565b60010161279e565b506000949350505050565b61271c600283018261289c565b61271c60028301826128bd565b6000612682836001600160a01b0384166128d2565b6000612685826128ea565b600061268283836128ee565b60006126828383612952565b6000612682836001600160a01b038416612952565b6000612682838361299c565b6000612682836001600160a01b03841661299c565b60009081526001919091016020526040902054151590565b5490565b815460009082106129305760405162461bcd60e51b8152600401808060200182810382526022815260200180612a636022913960400191505060405180910390fd5b82600001828154811061293f57fe5b9060005260206000200154905092915050565b600061295e83836128d2565b61299457508154600181810184556000848152602080822090930184905584548482528286019093526040902091909155612685565b506000612685565b60008181526001830160205260408120548015612a5857835460001980830191908101906000908790839081106129cf57fe5b90600052602060002001549050808760000184815481106129ec57fe5b600091825260208083209091019290925582815260018981019092526040902090840190558654879080612a1c57fe5b60019003818190600052602060002001600090559055866001016000878152602001908152602001600020600090556001945050505050612685565b600091505061268556fe456e756d657261626c655365743a20696e646578206f7574206f6620626f756e647353656e64657220646f6573206e6f7420636f6e7461696e2074686520617070726f76657220726f6c6543616e6e6f7420616464207265737472696374656420726f6c6520746f20726f6c6520626563617573652061206d656d62657220616c72656164792068617320746865207265737472696374656420726f6c653a204163636f756e7420636f6e7461696e732061207265737472696374656420726f6c655375626d69747465722068617320696e73756666696369656e74207065726d697373696f6e73526f6c652063616e6e6f7420626520746865206f726967696e2076616c7565206f66204f784f526f6c6520646f6573206e6f7420657869737400000000000000000000000000436f6e7472616374206e6f7420696e20646174612073746f72650000000000004163636f756e7420646f6573206e6f7420636f6e7461696e2074686520726f6c65436f6e747261637420617267756d656e74206973206e6f7420612076616c696420636f6e747261637420616464726573734163636f756e74206973206e6f7420617070726f76656420666f7220726f6c652ea264697066735822122049d9e1b7ff3cd00671c6276b90055381f6c014b163ffb55c6d6cfde924c74fff64736f6c63430007040033",
  "linkReferences": {},
  "deployedLinkReferences": {}
}