{
  "_format": "hh-sol-artifact-1",
  "contractName": "AuthorizationPlatform",
  "sourceName": "contracts/dependencies/authorization-platform/contracts/AuthorizationPlatform.sol",
  "abi": [
    {
      "inputs": [],
      "stateMutability": "nonpayable",
      "type": "constructor"
    },
    {
      "inputs": [
        {
          "internalType": "address",
          "name": "contract_",
          "type": "address"
        },
        {
          "internalType": "string",
          "name": "role",
          "type": "string"
        },
        {
          "internalType": "string",
          "name": "restrictedRole",
          "type": "string"
        }
      ],
      "name": "addRestrictedRole",
      "outputs": [],
      "stateMutability": "nonpayable",
      "type": "function"
    },
    {
      "inputs": [
        {
          "internalType": "address",
          "name": "contract_",
          "type": "address"
        },
        {
          "internalType": "string",
          "name": "role",
          "type": "string"
        },
        {
          "internalType": "address",
          "name": "account",
          "type": "address"
        }
      ],
      "name": "approveForRole",
      "outputs": [],
      "stateMutability": "nonpayable",
      "type": "function"
    },
    {
      "inputs": [
        {
          "internalType": "address",
          "name": "contract_",
          "type": "address"
        },
        {
          "internalType": "string",
          "name": "role",
          "type": "string"
        },
        {
          "internalType": "address",
          "name": "account",
          "type": "address"
        }
      ],
      "name": "assignRole",
      "outputs": [],
      "stateMutability": "nonpayable",
      "type": "function"
    },
    {
      "inputs": [
        {
          "internalType": "address",
          "name": "contract_",
          "type": "address"
        },
        {
          "internalType": "string",
          "name": "role",
          "type": "string"
        },
        {
          "internalType": "string",
          "name": "adminRole",
          "type": "string"
        },
        {
          "internalType": "string",
          "name": "approverRole",
          "type": "string"
        }
      ],
      "name": "createRole",
      "outputs": [],
      "stateMutability": "nonpayable",
      "type": "function"
    },
    {
      "inputs": [
        {
          "internalType": "address",
          "name": "contract_",
          "type": "address"
        },
        {
          "internalType": "string",
          "name": "role",
          "type": "string"
        }
      ],
      "name": "getAdminRole",
      "outputs": [
        {
          "internalType": "bytes32",
          "name": "",
          "type": "bytes32"
        }
      ],
      "stateMutability": "view",
      "type": "function"
    },
    {
      "inputs": [
        {
          "internalType": "address",
          "name": "contract_",
          "type": "address"
        },
        {
          "internalType": "string",
          "name": "role",
          "type": "string"
        }
      ],
      "name": "getApproverRole",
      "outputs": [
        {
          "internalType": "bytes32",
          "name": "",
          "type": "bytes32"
        }
      ],
      "stateMutability": "view",
      "type": "function"
    },
    {
      "inputs": [
        {
          "internalType": "address",
          "name": "contract_",
          "type": "address"
        },
        {
          "internalType": "string",
          "name": "role",
          "type": "string"
        },
        {
          "internalType": "uint256",
          "name": "index",
          "type": "uint256"
        }
      ],
      "name": "getRoleMember",
      "outputs": [
        {
          "internalType": "address",
          "name": "",
          "type": "address"
        }
      ],
      "stateMutability": "view",
      "type": "function"
    },
    {
      "inputs": [
        {
          "internalType": "address",
          "name": "contract_",
          "type": "address"
        },
        {
          "internalType": "string",
          "name": "role",
          "type": "string"
        }
      ],
      "name": "getRoleMemberCount",
      "outputs": [
        {
          "internalType": "uint256",
          "name": "",
          "type": "uint256"
        }
      ],
      "stateMutability": "view",
      "type": "function"
    },
    {
      "inputs": [
        {
          "internalType": "address",
          "name": "contract_",
          "type": "address"
        },
        {
          "internalType": "string",
          "name": "role",
          "type": "string"
        },
        {
          "internalType": "address",
          "name": "account",
          "type": "address"
        }
      ],
      "name": "hasRestrictedRole",
      "outputs": [
        {
          "internalType": "bool",
          "name": "",
          "type": "bool"
        }
      ],
      "stateMutability": "view",
      "type": "function"
    },
    {
      "inputs": [
        {
          "internalType": "address",
          "name": "contract_",
          "type": "address"
        },
        {
          "internalType": "string",
          "name": "role",
          "type": "string"
        },
        {
          "internalType": "address",
          "name": "account",
          "type": "address"
        }
      ],
      "name": "hasRole",
      "outputs": [
        {
          "internalType": "bool",
          "name": "",
          "type": "bool"
        }
      ],
      "stateMutability": "view",
      "type": "function"
    },
    {
      "inputs": [
        {
          "internalType": "address",
          "name": "contract_",
          "type": "address"
        },
        {
          "internalType": "string",
          "name": "role",
          "type": "string"
        },
        {
          "internalType": "address",
          "name": "account",
          "type": "address"
        }
      ],
      "name": "isApprovedForRole",
      "outputs": [
        {
          "internalType": "bool",
          "name": "",
          "type": "bool"
        }
      ],
      "stateMutability": "view",
      "type": "function"
    },
    {
      "inputs": [
        {
          "internalType": "address",
          "name": "contract_",
          "type": "address"
        }
      ],
      "name": "isContractRegistered",
      "outputs": [
        {
          "internalType": "bool",
          "name": "",
          "type": "bool"
        }
      ],
      "stateMutability": "view",
      "type": "function"
    },
    {
      "inputs": [
        {
          "internalType": "address",
          "name": "contract_",
          "type": "address"
        },
        {
          "internalType": "string",
          "name": "role",
          "type": "string"
        }
      ],
      "name": "isRoleCreated",
      "outputs": [
        {
          "internalType": "bool",
          "name": "",
          "type": "bool"
        }
      ],
      "stateMutability": "view",
      "type": "function"
    },
    {
      "inputs": [
        {
          "internalType": "address",
          "name": "contract_",
          "type": "address"
        },
        {
          "internalType": "string",
          "name": "role",
          "type": "string"
        },
        {
          "internalType": "string",
          "name": "restrictedRole",
          "type": "string"
        }
      ],
      "name": "isRoleRestricted",
      "outputs": [
        {
          "internalType": "bool",
          "name": "",
          "type": "bool"
        }
      ],
      "stateMutability": "view",
      "type": "function"
    },
    {
      "inputs": [
        {
          "internalType": "address",
          "name": "contract_",
          "type": "address"
        },
        {
          "internalType": "string",
          "name": "rootRole",
          "type": "string"
        },
        {
          "internalType": "address",
          "name": "rootAccount",
          "type": "address"
        }
      ],
      "name": "registerContract",
      "outputs": [],
      "stateMutability": "nonpayable",
      "type": "function"
    },
    {
      "inputs": [
        {
          "internalType": "address",
          "name": "contract_",
          "type": "address"
        },
        {
          "internalType": "string",
          "name": "role",
          "type": "string"
        },
        {
          "internalType": "string",
          "name": "restrictedRole",
          "type": "string"
        }
      ],
      "name": "removeRestrictedRole",
      "outputs": [],
      "stateMutability": "nonpayable",
      "type": "function"
    },
    {
      "inputs": [
        {
          "internalType": "address",
          "name": "contract_",
          "type": "address"
        },
        {
          "internalType": "string",
          "name": "role",
          "type": "string"
        },
        {
          "internalType": "address",
          "name": "account",
          "type": "address"
        }
      ],
      "name": "removeRole",
      "outputs": [],
      "stateMutability": "nonpayable",
      "type": "function"
    },
    {
      "inputs": [
        {
          "internalType": "address",
          "name": "contract_",
          "type": "address"
        },
        {
          "internalType": "string",
          "name": "role",
          "type": "string"
        }
      ],
      "name": "renounceRole",
      "outputs": [],
      "stateMutability": "nonpayable",
      "type": "function"
    },
    {
      "inputs": [
        {
          "internalType": "address",
          "name": "contract_",
          "type": "address"
        },
        {
          "internalType": "string",
          "name": "role",
          "type": "string"
        },
        {
          "internalType": "address",
          "name": "account",
          "type": "address"
        }
      ],
      "name": "revokeApproval",
      "outputs": [],
      "stateMutability": "nonpayable",
      "type": "function"
    },
    {
      "inputs": [
        {
          "internalType": "address",
          "name": "contract_",
          "type": "address"
        },
        {
          "internalType": "string",
          "name": "role",
          "type": "string"
        },
        {
          "internalType": "string",
          "name": "adminRole",
          "type": "string"
        }
      ],
      "name": "setAdminRole",
      "outputs": [],
      "stateMutability": "nonpayable",
      "type": "function"
    },
    {
      "inputs": [
        {
          "internalType": "address",
          "name": "contract_",
          "type": "address"
        },
        {
          "internalType": "string",
          "name": "role",
          "type": "string"
        },
        {
          "internalType": "string",
          "name": "approverRole",
          "type": "string"
        }
      ],
      "name": "setApproverRole",
      "outputs": [],
      "stateMutability": "nonpayable",
      "type": "function"
    },
    {
      "inputs": [
        {
          "internalType": "address",
          "name": "authorizationDatastore_",
          "type": "address"
        }
      ],
      "name": "setDatastoreAddress",
      "outputs": [],
      "stateMutability": "nonpayable",
      "type": "function"
    }
  ],
  "bytecode": "0x608060405234801561001057600080fd5b50600180546001600160a01b03191633179055613216806100326000396000f3fe608060405234801561001057600080fd5b50600436106101425760003560e01c80636f4942fb116100b8578063aed23af81161007c578063aed23af814610f1a578063b3a1bf2514610fd9578063d31b2e9e1461108d578063db7f574b1461114c578063f9f6b49b14611200578063ffd0c9781461122657610142565b80636f4942fb14610ae557806382a8e6f214610ba457806384b3b82e14610c6357806384e8a88f14610d22578063aac4deef14610de157610142565b80631849f6de1161010a5780631849f6de1461058d57806324e9a939146106415780633178c4c81461070057806334a2a682146107b45780633a79ea2e146108ed5780635f1d774314610a2657610142565b8063043c06e914610147578063103ed6d31461028257806310d288c7146102a857806316a0b9941461037a57806316e55a8e14610440575b600080fd5b6102806004803603606081101561015d57600080fd5b6001600160a01b038235169190810190604081016020820135600160201b81111561018757600080fd5b82018360208201111561019957600080fd5b803590602001918460018302840111600160201b831117156101ba57600080fd5b91908080601f0160208091040260200160405190810160405280939291908181526020018383808284376000920191909152509295949360208101935035915050600160201b81111561020c57600080fd5b82018360208201111561021e57600080fd5b803590602001918460018302840111600160201b8311171561023f57600080fd5b91908080601f0160208091040260200160405190810160405280939291908181526020018383808284376000920191909152509295506113e4945050505050565b005b6102806004803603602081101561029857600080fd5b50356001600160a01b03166115c5565b61035e600480360360608110156102be57600080fd5b6001600160a01b038235169190810190604081016020820135600160201b8111156102e857600080fd5b8201836020820111156102fa57600080fd5b803590602001918460018302840111600160201b8311171561031b57600080fd5b91908080601f0160208091040260200160405190810160405280939291908181526020018383808284376000920191909152509295505091359250611633915050565b604080516001600160a01b039092168252519081900360200190f35b61042e6004803603604081101561039057600080fd5b6001600160a01b038235169190810190604081016020820135600160201b8111156103ba57600080fd5b8201836020820111156103cc57600080fd5b803590602001918460018302840111600160201b831117156103ed57600080fd5b91908080601f016020809104026020016040519081016040528093929190818152602001838380828437600092019190915250929550611793945050505050565b60408051918252519081900360200190f35b6105796004803603606081101561045657600080fd5b6001600160a01b038235169190810190604081016020820135600160201b81111561048057600080fd5b82018360208201111561049257600080fd5b803590602001918460018302840111600160201b831117156104b357600080fd5b91908080601f0160208091040260200160405190810160405280939291908181526020018383808284376000920191909152509295949360208101935035915050600160201b81111561050557600080fd5b82018360208201111561051757600080fd5b803590602001918460018302840111600160201b8311171561053857600080fd5b91908080601f0160208091040260200160405190810160405280939291908181526020018383808284376000920191909152509295506118eb945050505050565b604080519115158252519081900360200190f35b61042e600480360360408110156105a357600080fd5b6001600160a01b038235169190810190604081016020820135600160201b8111156105cd57600080fd5b8201836020820111156105df57600080fd5b803590602001918460018302840111600160201b8311171561060057600080fd5b91908080601f016020809104026020016040519081016040528093929190818152602001838380828437600092019190915250929550611ad9945050505050565b6102806004803603606081101561065757600080fd5b6001600160a01b038235169190810190604081016020820135600160201b81111561068157600080fd5b82018360208201111561069357600080fd5b803590602001918460018302840111600160201b831117156106b457600080fd5b91908080601f016020809104026020016040519081016040528093929190818152602001838380828437600092019190915250929550505090356001600160a01b03169150611bfd9050565b6102806004803603604081101561071657600080fd5b6001600160a01b038235169190810190604081016020820135600160201b81111561074057600080fd5b82018360208201111561075257600080fd5b803590602001918460018302840111600160201b8311171561077357600080fd5b91908080601f016020809104026020016040519081016040528093929190818152602001838380828437600092019190915250929550611d51945050505050565b610280600480360360608110156107ca57600080fd5b6001600160a01b038235169190810190604081016020820135600160201b8111156107f457600080fd5b82018360208201111561080657600080fd5b803590602001918460018302840111600160201b8311171561082757600080fd5b91908080601f0160208091040260200160405190810160405280939291908181526020018383808284376000920191909152509295949360208101935035915050600160201b81111561087957600080fd5b82018360208201111561088b57600080fd5b803590602001918460018302840111600160201b831117156108ac57600080fd5b91908080601f016020809104026020016040519081016040528093929190818152602001838380828437600092019190915250929550611e96945050505050565b6102806004803603606081101561090357600080fd5b6001600160a01b038235169190810190604081016020820135600160201b81111561092d57600080fd5b82018360208201111561093f57600080fd5b803590602001918460018302840111600160201b8311171561096057600080fd5b91908080601f0160208091040260200160405190810160405280939291908181526020018383808284376000920191909152509295949360208101935035915050600160201b8111156109b257600080fd5b8201836020820111156109c457600080fd5b803590602001918460018302840111600160201b831117156109e557600080fd5b91908080601f016020809104026020016040519081016040528093929190818152602001838380828437600092019190915250929550612058945050505050565b61057960048036036060811015610a3c57600080fd5b6001600160a01b038235169190810190604081016020820135600160201b811115610a6657600080fd5b820183602082011115610a7857600080fd5b803590602001918460018302840111600160201b83111715610a9957600080fd5b91908080601f016020809104026020016040519081016040528093929190818152602001838380828437600092019190915250929550505090356001600160a01b0316915061221a9050565b61057960048036036060811015610afb57600080fd5b6001600160a01b038235169190810190604081016020820135600160201b811115610b2557600080fd5b820183602082011115610b3757600080fd5b803590602001918460018302840111600160201b83111715610b5857600080fd5b91908080601f016020809104026020016040519081016040528093929190818152602001838380828437600092019190915250929550505090356001600160a01b031691506123469050565b61028060048036036060811015610bba57600080fd5b6001600160a01b038235169190810190604081016020820135600160201b811115610be457600080fd5b820183602082011115610bf657600080fd5b803590602001918460018302840111600160201b83111715610c1757600080fd5b91908080601f016020809104026020016040519081016040528093929190818152602001838380828437600092019190915250929550505090356001600160a01b031691506124729050565b61028060048036036060811015610c7957600080fd5b6001600160a01b038235169190810190604081016020820135600160201b811115610ca357600080fd5b820183602082011115610cb557600080fd5b803590602001918460018302840111600160201b83111715610cd657600080fd5b91908080601f016020809104026020016040519081016040528093929190818152602001838380828437600092019190915250929550505090356001600160a01b031691506125a29050565b61028060048036036060811015610d3857600080fd5b6001600160a01b038235169190810190604081016020820135600160201b811115610d6257600080fd5b820183602082011115610d7457600080fd5b803590602001918460018302840111600160201b83111715610d9557600080fd5b91908080601f016020809104026020016040519081016040528093929190818152602001838380828437600092019190915250929550505090356001600160a01b031691506126d89050565b61028060048036036060811015610df757600080fd5b6001600160a01b038235169190810190604081016020820135600160201b811115610e2157600080fd5b820183602082011115610e3357600080fd5b803590602001918460018302840111600160201b83111715610e5457600080fd5b91908080601f0160208091040260200160405190810160405280939291908181526020018383808284376000920191909152509295949360208101935035915050600160201b811115610ea657600080fd5b820183602082011115610eb857600080fd5b803590602001918460018302840111600160201b83111715610ed957600080fd5b91908080601f01602080910402602001604051908101604052809392919081815260200183838082843760009201919091525092955061280e945050505050565b61057960048036036060811015610f3057600080fd5b6001600160a01b038235169190810190604081016020820135600160201b811115610f5a57600080fd5b820183602082011115610f6c57600080fd5b803590602001918460018302840111600160201b83111715610f8d57600080fd5b91908080601f016020809104026020016040519081016040528093929190818152602001838380828437600092019190915250929550505090356001600160a01b031691506129d09050565b61057960048036036040811015610fef57600080fd5b6001600160a01b038235169190810190604081016020820135600160201b81111561101957600080fd5b82018360208201111561102b57600080fd5b803590602001918460018302840111600160201b8311171561104c57600080fd5b91908080601f016020809104026020016040519081016040528093929190818152602001838380828437600092019190915250929550612afc945050505050565b610280600480360360608110156110a357600080fd5b6001600160a01b038235169190810190604081016020820135600160201b8111156110cd57600080fd5b8201836020820111156110df57600080fd5b803590602001918460018302840111600160201b8311171561110057600080fd5b91908080601f016020809104026020016040519081016040528093929190818152602001838380828437600092019190915250929550505090356001600160a01b03169150612c209050565b61042e6004803603604081101561116257600080fd5b6001600160a01b038235169190810190604081016020820135600160201b81111561118c57600080fd5b82018360208201111561119e57600080fd5b803590602001918460018302840111600160201b831117156111bf57600080fd5b91908080601f016020809104026020016040519081016040528093929190818152602001838380828437600092019190915250929550612d56945050505050565b6105796004803603602081101561121657600080fd5b50356001600160a01b0316612e7a565b6102806004803603608081101561123c57600080fd5b6001600160a01b038235169190810190604081016020820135600160201b81111561126657600080fd5b82018360208201111561127857600080fd5b803590602001918460018302840111600160201b8311171561129957600080fd5b91908080601f0160208091040260200160405190810160405280939291908181526020018383808284376000920191909152509295949360208101935035915050600160201b8111156112eb57600080fd5b8201836020820111156112fd57600080fd5b803590602001918460018302840111600160201b8311171561131e57600080fd5b91908080601f0160208091040260200160405190810160405280939291908181526020018383808284376000920191909152509295949360208101935035915050600160201b81111561137057600080fd5b82018360208201111561138257600080fd5b803590602001918460018302840111600160201b831117156113a357600080fd5b91908080601f016020809104026020016040519081016040528093929190818152602001838380828437600092019190915250929550612f41945050505050565b6000546001600160a01b031661142b5760405162461bcd60e51b81526004018080602001828103825260288152602001806131b96028913960400191505060405180910390fd5b6000826040516020018080602001828103825283818151815260200191508051906020019080838360005b8381101561146e578181015183820152602001611456565b50505050905090810190601f16801561149b5780820380516001836020036101000a031916815260200191505b50925050506040516020818303038152906040528051906020012090506000826040516020018080602001828103825283818151815260200191508051906020019080838360005b838110156114fb5781810151838201526020016114e3565b50505050905090810190601f1680156115285780820380516001836020036101000a031916815260200191505b5060408051601f19818403018152828252805160209091012060008054638cc6b01f60e01b85526001600160a01b038d81166004870152336024870152604486018b9052606486018490529351929850929092169550638cc6b01f945060848084019450919290919082900301818387803b1580156115a657600080fd5b505af11580156115ba573d6000803e3d6000fd5b505050505050505050565b6001546001600160a01b03163314611611576040805162461bcd60e51b815260206004820152600a6024820152694f776e6572206f6e6c7960b01b604482015290519081900360640190fd5b600080546001600160a01b0319166001600160a01b0392909216919091179055565b600080546001600160a01b031661167b5760405162461bcd60e51b81526004018080602001828103825260288152602001806131b96028913960400191505060405180910390fd5b6000836040516020018080602001828103825283818151815260200191508051906020019080838360005b838110156116be5781810151838201526020016116a6565b50505050905090810190601f1680156116eb5780820380516001836020036101000a031916815260200191505b5060408051601f198184030181528282528051602091820120600054638673e5db60e01b85526001600160a01b038d8116600487015260248601839052604486018c90529351919850929092169550638673e5db9450606480840194509092829003018186803b15801561175e57600080fd5b505afa158015611772573d6000803e3d6000fd5b505050506040513d602081101561178857600080fd5b505195945050505050565b600080546001600160a01b03166117db5760405162461bcd60e51b81526004018080602001828103825260288152602001806131b96028913960400191505060405180910390fd5b6000826040516020018080602001828103825283818151815260200191508051906020019080838360005b8381101561181e578181015183820152602001611806565b50505050905090810190601f16801561184b5780820380516001836020036101000a031916815260200191505b5060408051601f198184030181528282528051602091820120600054632b6d11dd60e21b85526001600160a01b038c8116600487015260248601839052935191985092909216955063adb447749450604480840194509092829003018186803b1580156118b757600080fd5b505afa1580156118cb573d6000803e3d6000fd5b505050506040513d60208110156118e157600080fd5b5051949350505050565b600080546001600160a01b03166119335760405162461bcd60e51b81526004018080602001828103825260288152602001806131b96028913960400191505060405180910390fd5b6000836040516020018080602001828103825283818151815260200191508051906020019080838360005b8381101561197657818101518382015260200161195e565b50505050905090810190601f1680156119a35780820380516001836020036101000a031916815260200191505b50925050506040516020818303038152906040528051906020012090506000836040516020018080602001828103825283818151815260200191508051906020019080838360005b83811015611a035781810151838201526020016119eb565b50505050905090810190601f168015611a305780820380516001836020036101000a031916815260200191505b5060408051601f198184030181528282528051602091820120600054630cee4aa560e31b85526001600160a01b038e81166004870152602486018b905260448601839052935191985092909216955063677255289450606480840194509092829003018186803b158015611aa357600080fd5b505afa158015611ab7573d6000803e3d6000fd5b505050506040513d6020811015611acd57600080fd5b50519695505050505050565b600080546001600160a01b0316611b215760405162461bcd60e51b81526004018080602001828103825260288152602001806131b96028913960400191505060405180910390fd5b6000826040516020018080602001828103825283818151815260200191508051906020019080838360005b83811015611b64578181015183820152602001611b4c565b50505050905090810190601f168015611b915780820380516001836020036101000a031916815260200191505b5060408051601f1981840301815282825280516020918201206000546329e6931960e21b85526001600160a01b038c8116600487015260248601839052935191985092909216955063a79a4c649450604480840194509092829003018186803b1580156118b757600080fd5b6000546001600160a01b0316611c445760405162461bcd60e51b81526004018080602001828103825260288152602001806131b96028913960400191505060405180910390fd5b6000826040516020018080602001828103825283818151815260200191508051906020019080838360005b83811015611c87578181015183820152602001611c6f565b50505050905090810190601f168015611cb45780820380516001836020036101000a031916815260200191505b5060408051601f1981840301815282825280516020909101206000805463daddaa1b60e01b85526001600160a01b038c81166004870152602486018490528a81166044870152336064870152935192985092909216955063daddaa1b945060848084019450919290919082900301818387803b158015611d3357600080fd5b505af1158015611d47573d6000803e3d6000fd5b5050505050505050565b6000546001600160a01b0316611d985760405162461bcd60e51b81526004018080602001828103825260288152602001806131b96028913960400191505060405180910390fd5b6000816040516020018080602001828103825283818151815260200191508051906020019080838360005b83811015611ddb578181015183820152602001611dc3565b50505050905090810190601f168015611e085780820380516001836020036101000a031916815260200191505b5060408051601f1981840301815282825280516020909101206000805463f3c3437d60e01b85526001600160a01b038b8116600487015260248601849052935192985092909216955063f3c3437d945060448084019450919290919082900301818387803b158015611e7957600080fd5b505af1158015611e8d573d6000803e3d6000fd5b50505050505050565b6000546001600160a01b0316611edd5760405162461bcd60e51b81526004018080602001828103825260288152602001806131b96028913960400191505060405180910390fd5b6000826040516020018080602001828103825283818151815260200191508051906020019080838360005b83811015611f20578181015183820152602001611f08565b50505050905090810190601f168015611f4d5780820380516001836020036101000a031916815260200191505b50925050506040516020818303038152906040528051906020012090506000826040516020018080602001828103825283818151815260200191508051906020019080838360005b83811015611fad578181015183820152602001611f95565b50505050905090810190601f168015611fda5780820380516001836020036101000a031916815260200191505b5060408051601f19818403018152828252805160209091012060008054632ebdc68f60e21b85526001600160a01b038d81166004870152336024870152604486018b905260648601849052935192985092909216955063baf71a3c945060848084019450919290919082900301818387803b1580156115a657600080fd5b6000546001600160a01b031661209f5760405162461bcd60e51b81526004018080602001828103825260288152602001806131b96028913960400191505060405180910390fd5b6000826040516020018080602001828103825283818151815260200191508051906020019080838360005b838110156120e25781810151838201526020016120ca565b50505050905090810190601f16801561210f5780820380516001836020036101000a031916815260200191505b50925050506040516020818303038152906040528051906020012090506000826040516020018080602001828103825283818151815260200191508051906020019080838360005b8381101561216f578181015183820152602001612157565b50505050905090810190601f16801561219c5780820380516001836020036101000a031916815260200191505b5060408051601f1981840301815282825280516020909101206000805463daa5e66160e01b85526001600160a01b038d81166004870152336024870152604486018b905260648601849052935192985092909216955063daa5e661945060848084019450919290919082900301818387803b1580156115a657600080fd5b600080546001600160a01b03166122625760405162461bcd60e51b81526004018080602001828103825260288152602001806131b96028913960400191505060405180910390fd5b6000836040516020018080602001828103825283818151815260200191508051906020019080838360005b838110156122a557818101518382015260200161228d565b50505050905090810190601f1680156122d25780820380516001836020036101000a031916815260200191505b5060408051601f1981840301815282825280516020918201206000546370ea7cf360e11b85526001600160a01b038d81166004870152602486018390528b81166044870152935191985092909216955063e1d4f9e69450606480840194509092829003018186803b15801561175e57600080fd5b600080546001600160a01b031661238e5760405162461bcd60e51b81526004018080602001828103825260288152602001806131b96028913960400191505060405180910390fd5b6000836040516020018080602001828103825283818151815260200191508051906020019080838360005b838110156123d15781810151838201526020016123b9565b50505050905090810190601f1680156123fe5780820380516001836020036101000a031916815260200191505b5060408051601f19818403018152828252805160209182012060005463052a6b2760e51b85526001600160a01b038d81166004870152602486018390528b81166044870152935191985092909216955063a54d64e09450606480840194509092829003018186803b15801561175e57600080fd5b6000546001600160a01b03166124b95760405162461bcd60e51b81526004018080602001828103825260288152602001806131b96028913960400191505060405180910390fd5b6000826040516020018080602001828103825283818151815260200191508051906020019080838360005b838110156124fc5781810151838201526020016124e4565b50505050905090810190601f1680156125295780820380516001836020036101000a031916815260200191505b5060408051601f19818403018152828252805160209091012060008054632c50a51b60e21b85526001600160a01b038c81166004870152602486018490528a81166044870152935192985092909216955063b142946c945060648084019450919290919082900301818387803b158015611d3357600080fd5b6000546001600160a01b03166125e95760405162461bcd60e51b81526004018080602001828103825260288152602001806131b96028913960400191505060405180910390fd5b6000826040516020018080602001828103825283818151815260200191508051906020019080838360005b8381101561262c578181015183820152602001612614565b50505050905090810190601f1680156126595780820380516001836020036101000a031916815260200191505b5060408051601f198184030181528282528051602090910120600080546310e1adfb60e21b85526001600160a01b038c81166004870152602486018490528a811660448701523360648701529351929850929092169550634386b7ec945060848084019450919290919082900301818387803b158015611d3357600080fd5b6000546001600160a01b031661271f5760405162461bcd60e51b81526004018080602001828103825260288152602001806131b96028913960400191505060405180910390fd5b6000826040516020018080602001828103825283818151815260200191508051906020019080838360005b8381101561276257818101518382015260200161274a565b50505050905090810190601f16801561278f5780820380516001836020036101000a031916815260200191505b5060408051601f1981840301815282825280516020909101206000805463fb19cfbd60e01b85526001600160a01b038c81166004870152602486018490528a81166044870152336064870152935192985092909216955063fb19cfbd945060848084019450919290919082900301818387803b158015611d3357600080fd5b6000546001600160a01b03166128555760405162461bcd60e51b81526004018080602001828103825260288152602001806131b96028913960400191505060405180910390fd5b6000826040516020018080602001828103825283818151815260200191508051906020019080838360005b83811015612898578181015183820152602001612880565b50505050905090810190601f1680156128c55780820380516001836020036101000a031916815260200191505b50925050506040516020818303038152906040528051906020012090506000826040516020018080602001828103825283818151815260200191508051906020019080838360005b8381101561292557818101518382015260200161290d565b50505050905090810190601f1680156129525780820380516001836020036101000a031916815260200191505b5060408051601f19818403018152828252805160209091012060008054632aa04dcf60e21b85526001600160a01b038d81166004870152336024870152604486018b905260648601849052935192985092909216955063aa81373c945060848084019450919290919082900301818387803b1580156115a657600080fd5b600080546001600160a01b0316612a185760405162461bcd60e51b81526004018080602001828103825260288152602001806131b96028913960400191505060405180910390fd5b6000836040516020018080602001828103825283818151815260200191508051906020019080838360005b83811015612a5b578181015183820152602001612a43565b50505050905090810190601f168015612a885780820380516001836020036101000a031916815260200191505b5060408051601f19818403018152828252805160209182012060005463169f2bcd60e11b85526001600160a01b038d81166004870152602486018390528b811660448701529351919850929092169550632d3e579a9450606480840194509092829003018186803b15801561175e57600080fd5b600080546001600160a01b0316612b445760405162461bcd60e51b81526004018080602001828103825260288152602001806131b96028913960400191505060405180910390fd5b6000826040516020018080602001828103825283818151815260200191508051906020019080838360005b83811015612b87578181015183820152602001612b6f565b50505050905090810190601f168015612bb45780820380516001836020036101000a031916815260200191505b5060408051601f19818403018152828252805160209182012060005463f58404d360e01b85526001600160a01b038c8116600487015260248601839052935191985092909216955063f58404d39450604480840194509092829003018186803b1580156118b757600080fd5b6000546001600160a01b0316612c675760405162461bcd60e51b81526004018080602001828103825260288152602001806131b96028913960400191505060405180910390fd5b6000826040516020018080602001828103825283818151815260200191508051906020019080838360005b83811015612caa578181015183820152602001612c92565b50505050905090810190601f168015612cd75780820380516001836020036101000a031916815260200191505b5060408051601f19818403018152828252805160209091012060008054636e25681d60e11b85526001600160a01b038c81166004870152602486018490528a81166044870152336064870152935192985092909216955063dc4ad03a945060848084019450919290919082900301818387803b158015611d3357600080fd5b600080546001600160a01b0316612d9e5760405162461bcd60e51b81526004018080602001828103825260288152602001806131b96028913960400191505060405180910390fd5b6000826040516020018080602001828103825283818151815260200191508051906020019080838360005b83811015612de1578181015183820152602001612dc9565b50505050905090810190601f168015612e0e5780820380516001836020036101000a031916815260200191505b5060408051601f19818403018152828252805160209182012060005463f3dac56560e01b85526001600160a01b038c8116600487015260248601839052935191985092909216955063f3dac5659450604480840194509092829003018186803b1580156118b757600080fd5b600080546001600160a01b0316612ec25760405162461bcd60e51b81526004018080602001828103825260288152602001806131b96028913960400191505060405180910390fd5b6000546040805163f9f6b49b60e01b81526001600160a01b0385811660048301529151919092169163f9f6b49b916024808301926020929190829003018186803b158015612f0f57600080fd5b505afa158015612f23573d6000803e3d6000fd5b505050506040513d6020811015612f3957600080fd5b505192915050565b6000546001600160a01b0316612f885760405162461bcd60e51b81526004018080602001828103825260288152602001806131b96028913960400191505060405180910390fd5b6000836040516020018080602001828103825283818151815260200191508051906020019080838360005b83811015612fcb578181015183820152602001612fb3565b50505050905090810190601f168015612ff85780820380516001836020036101000a031916815260200191505b50925050506040516020818303038152906040528051906020012090506000836040516020018080602001828103825283818151815260200191508051906020019080838360005b83811015613058578181015183820152602001613040565b50505050905090810190601f1680156130855780820380516001836020036101000a031916815260200191505b50925050506040516020818303038152906040528051906020012090506000836040516020018080602001828103825283818151815260200191508051906020019080838360005b838110156130e55781810151838201526020016130cd565b50505050905090810190601f1680156131125780820380516001836020036101000a031916815260200191505b5060408051601f198184030181528282528051602090910120600080546312656c2560e21b85526001600160a01b038f81166004870152336024870152604486018c9052606486018b9052608486018490529351929850929092169550634995b094945060a48084019450919290919082900301818387803b15801561319757600080fd5b505af11580156131ab573d6000803e3d6000fd5b505050505050505050505056fe4461746173746f726520686173206e6f74206265656e2073657420746f206d616b652063616c6c73a26469706673582212209c18dd365144cdeeea5603c873e5d4b97f888729aeeeb18ba5df556fd90e113c64736f6c63430007040033",
  "linkReferences": {},
  "deployedLinkReferences": {}
}